:1000000000308A008F280000FF00030E8301A1004A
:100010007F08A0000A08A8008A01A00E0408A20018
:100020007708A3007808A4007908A5007A08A6003C
:100030007B08A700831383128C308400801D222844
:100040008C193528220884002308F7002408F800BA
:100050002508F9002608FA002708FB0028088A006E
:10006000210E8300FF0E7F0E09008A1137288316A8
:10007000941A42288312B9018316141D4228831250
:10008000B917831683123908B90ABC003C08803CB2
:10009000031C5D288C1D4A2813081416BB003C0B5A
:1000A00053283B08B6003C08023C031D5D2829305C
:1000B0003607840083133B0880003C087F3C03180C
:1000C00077283C080F39B5002930350784008313A1
:1000D0000008BD003D08BE003E08930014168C11B8
:1000E000831614187128F8018312141AF80A8C1157
:1000F0008A1122283A3084008313000803198D28BE
:100100000230F800F701F70B8328F80B82289730AC
:10011000F700F70B8928800B80288A116629840153
:1001200083131F308305831606168614123093003E
:100130003630831294008316861283128616831635
:100140001F129F121B0880399B0007309C008312EE
:10015000A901AA01AB01AC01AD01AE01AF01B00133
:10016000B101FF30B200B300B4000330B900831610
:100170001F129F121B08803901389B001F129F120B
:100180001B08803902389B001F129F121B08803900
:1001900004389B001F129F121B08803908389B00EF
:1001A0001F1383121F179F1383169F1783121F1489
:1001B000073083169C00050885000630F700F70B12
:1001C000DF2800001C0883120D1383169D018C1577
:1001D000C03083128B040030F8001F08C739780440
:1001E0009F000D30F700F70BF3281F151F19F62895
:1001F00083161E088312B7001E08B8003808A9002D
:100200003708AA000830F8001F08C73978049F0093
:100210000D30F700F70B0A291F151F190D2983163A
:100220001E088312B7001E08B8003808AB00370854
:10023000AC001030F8001F08C73978049F000D305B
:10024000F700F70B21291F151F19242983161E08F3
:100250008312B7001E08B8003808AD003708AE009A
:100260001830F8001F08C73978049F000D30F700D8
:10027000F70B38291F151F193B2983161E088312F7
:10028000B7001E08B8003808AF003708B0000D30BE
:10029000F700F70B4929061C50290130B1005129FC
:1002A000B101861D56290130B2005729B201061F3F
:1002B0005C290130B3005D29B301861F622901303A
:1002C000B4006329B4013230BA007A28EB28630005
:04400E00623FFF3FCF
:00000001FF
;PIC16F88
;CRC=FB30  CREATED="21-lis-21 12:44"
